{
  "_format": "hh-sol-artifact-1",
  "contractName": "NFTFactory",
  "sourceName": "contracts/NFTFactory.sol",
  "abi": [
    {
      "inputs": [],
      "stateMutability": "nonpayable",
      "type": "constructor"
    },
    {
      "anonymous": false,
      "inputs": [
        {
          "indexed": true,
          "internalType": "address",
          "name": "owner",
          "type": "address"
        },
        {
          "indexed": true,
          "internalType": "address",
          "name": "approved",
          "type": "address"
        },
        {
          "indexed": true,
          "internalType": "uint256",
          "name": "tokenId",
          "type": "uint256"
        }
      ],
      "name": "Approval",
      "type": "event"
    },
    {
      "anonymous": false,
      "inputs": [
        {
          "indexed": true,
          "internalType": "address",
          "name": "owner",
          "type": "address"
        },
        {
          "indexed": true,
          "internalType": "address",
          "name": "operator",
          "type": "address"
        },
        {
          "indexed": false,
          "internalType": "bool",
          "name": "approved",
          "type": "bool"
        }
      ],
      "name": "ApprovalForAll",
      "type": "event"
    },
    {
      "anonymous": false,
      "inputs": [
        {
          "indexed": false,
          "internalType": "address",
          "name": "sender",
          "type": "address"
        },
        {
          "indexed": false,
          "internalType": "uint256",
          "name": "tokenId",
          "type": "uint256"
        }
      ],
      "name": "NewEpicNFTMinted",
      "type": "event"
    },
    {
      "anonymous": false,
      "inputs": [
        {
          "indexed": true,
          "internalType": "address",
          "name": "from",
          "type": "address"
        },
        {
          "indexed": true,
          "internalType": "address",
          "name": "to",
          "type": "address"
        },
        {
          "indexed": true,
          "internalType": "uint256",
          "name": "tokenId",
          "type": "uint256"
        }
      ],
      "name": "Transfer",
      "type": "event"
    },
    {
      "inputs": [
        {
          "internalType": "address",
          "name": "to",
          "type": "address"
        },
        {
          "internalType": "uint256",
          "name": "tokenId",
          "type": "uint256"
        }
      ],
      "name": "approve",
      "outputs": [],
      "stateMutability": "nonpayable",
      "type": "function"
    },
    {
      "inputs": [
        {
          "internalType": "address",
          "name": "owner",
          "type": "address"
        }
      ],
      "name": "balanceOf",
      "outputs": [
        {
          "internalType": "uint256",
          "name": "",
          "type": "uint256"
        }
      ],
      "stateMutability": "view",
      "type": "function"
    },
    {
      "inputs": [
        {
          "internalType": "uint256",
          "name": "tokenId",
          "type": "uint256"
        }
      ],
      "name": "getApproved",
      "outputs": [
        {
          "internalType": "address",
          "name": "",
          "type": "address"
        }
      ],
      "stateMutability": "view",
      "type": "function"
    },
    {
      "inputs": [
        {
          "internalType": "address",
          "name": "owner",
          "type": "address"
        },
        {
          "internalType": "address",
          "name": "operator",
          "type": "address"
        }
      ],
      "name": "isApprovedForAll",
      "outputs": [
        {
          "internalType": "bool",
          "name": "",
          "type": "bool"
        }
      ],
      "stateMutability": "view",
      "type": "function"
    },
    {
      "inputs": [],
      "name": "mintANFT",
      "outputs": [
        {
          "internalType": "uint256",
          "name": "",
          "type": "uint256"
        }
      ],
      "stateMutability": "nonpayable",
      "type": "function"
    },
    {
      "inputs": [],
      "name": "name",
      "outputs": [
        {
          "internalType": "string",
          "name": "",
          "type": "string"
        }
      ],
      "stateMutability": "view",
      "type": "function"
    },
    {
      "inputs": [
        {
          "internalType": "uint256",
          "name": "tokenId",
          "type": "uint256"
        }
      ],
      "name": "ownerOf",
      "outputs": [
        {
          "internalType": "address",
          "name": "",
          "type": "address"
        }
      ],
      "stateMutability": "view",
      "type": "function"
    },
    {
      "inputs": [
        {
          "internalType": "uint256",
          "name": "tokenId",
          "type": "uint256"
        }
      ],
      "name": "pickRandomFirstWord",
      "outputs": [
        {
          "internalType": "string",
          "name": "",
          "type": "string"
        }
      ],
      "stateMutability": "view",
      "type": "function"
    },
    {
      "inputs": [
        {
          "internalType": "uint256",
          "name": "tokenId",
          "type": "uint256"
        }
      ],
      "name": "pickRandomSecondWord",
      "outputs": [
        {
          "internalType": "string",
          "name": "",
          "type": "string"
        }
      ],
      "stateMutability": "view",
      "type": "function"
    },
    {
      "inputs": [
        {
          "internalType": "address",
          "name": "from",
          "type": "address"
        },
        {
          "internalType": "address",
          "name": "to",
          "type": "address"
        },
        {
          "internalType": "uint256",
          "name": "tokenId",
          "type": "uint256"
        }
      ],
      "name": "safeTransferFrom",
      "outputs": [],
      "stateMutability": "nonpayable",
      "type": "function"
    },
    {
      "inputs": [
        {
          "internalType": "address",
          "name": "from",
          "type": "address"
        },
        {
          "internalType": "address",
          "name": "to",
          "type": "address"
        },
        {
          "internalType": "uint256",
          "name": "tokenId",
          "type": "uint256"
        },
        {
          "internalType": "bytes",
          "name": "data",
          "type": "bytes"
        }
      ],
      "name": "safeTransferFrom",
      "outputs": [],
      "stateMutability": "nonpayable",
      "type": "function"
    },
    {
      "inputs": [
        {
          "internalType": "address",
          "name": "operator",
          "type": "address"
        },
        {
          "internalType": "bool",
          "name": "approved",
          "type": "bool"
        }
      ],
      "name": "setApprovalForAll",
      "outputs": [],
      "stateMutability": "nonpayable",
      "type": "function"
    },
    {
      "inputs": [
        {
          "internalType": "bytes4",
          "name": "interfaceId",
          "type": "bytes4"
        }
      ],
      "name": "supportsInterface",
      "outputs": [
        {
          "internalType": "bool",
          "name": "",
          "type": "bool"
        }
      ],
      "stateMutability": "view",
      "type": "function"
    },
    {
      "inputs": [],
      "name": "symbol",
      "outputs": [
        {
          "internalType": "string",
          "name": "",
          "type": "string"
        }
      ],
      "stateMutability": "view",
      "type": "function"
    },
    {
      "inputs": [
        {
          "internalType": "uint256",
          "name": "tokenId",
          "type": "uint256"
        }
      ],
      "name": "tokenURI",
      "outputs": [
        {
          "internalType": "string",
          "name": "",
          "type": "string"
        }
      ],
      "stateMutability": "view",
      "type": "function"
    },
    {
      "inputs": [
        {
          "internalType": "address",
          "name": "from",
          "type": "address"
        },
        {
          "internalType": "address",
          "name": "to",
          "type": "address"
        },
        {
          "internalType": "uint256",
          "name": "tokenId",
          "type": "uint256"
        }
      ],
      "name": "transferFrom",
      "outputs": [],
      "stateMutability": "nonpayable",
      "type": "function"
    }
  ],
  "bytecode": "0x6080604052604051806102e001604052806102b6815260200162003fdd6102b69139600890805190602001906200003892919062000734565b506040518061016001604052806040518060400160405280600581526020017f566173636f00000000000000000000000000000000000000000000000000000081525081526020016040518060400160405280600881526020017f466c616d656e676f00000000000000000000000000000000000000000000000081525081526020016040518060400160405280600881526020017f426f7461666f676f00000000000000000000000000000000000000000000000081525081526020016040518060400160405280600981526020017f50616c6d6569726173000000000000000000000000000000000000000000000081525081526020016040518060400160405280600b81526020017f436f72696e746869616e7300000000000000000000000000000000000000000081525081526020016040518060400160405280600881526020017f4372757a6569726f00000000000000000000000000000000000000000000000081525081526020016040518060400160405280600681526020017f53616e746f73000000000000000000000000000000000000000000000000000081525081526020016040518060400160405280600a81526020017f466c756d696e656e73650000000000000000000000000000000000000000000081525081526020016040518060400160405280600b81526020017f41746c657469636f20505200000000000000000000000000000000000000000081525081526020016040518060400160405280600681526020017f4772656d696f000000000000000000000000000000000000000000000000000081525081526020016040518060400160405280600d81526020017f496e7465726e6163696f6e616c00000000000000000000000000000000000000815250815250600990600b620002de929190620007c5565b506040518061016001604052806040518060400160405280600881526020017f5072696d6569726100000000000000000000000000000000000000000000000081525081526020016040518060400160405280600781526020017f536567756e64610000000000000000000000000000000000000000000000000081525081526020016040518060400160405280600881526020017f546572636569726100000000000000000000000000000000000000000000000081525081526020016040518060400160405280600681526020017f517561727461000000000000000000000000000000000000000000000000000081525081526020016040518060400160405280600681526020017f5175696e7461000000000000000000000000000000000000000000000000000081525081526020016040518060400160405280600b81526020017f53656d5072696d6569726100000000000000000000000000000000000000000081525081526020016040518060400160405280600781526020017f536567756e64610000000000000000000000000000000000000000000000000081525081526020016040518060400160405280600881526020017f546572636569726100000000000000000000000000000000000000000000000081525081526020016040518060400160405280600681526020017f517561727461000000000000000000000000000000000000000000000000000081525081526020016040518060400160405280600681526020017f5175696e7461000000000000000000000000000000000000000000000000000081525081526020016040518060400160405280600381526020017f53656d0000000000000000000000000000000000000000000000000000000000815250815250600a90600b62000584929190620007c5565b503480156200059257600080fd5b506040518060400160405280600981526020017f5465616d204e616d6500000000000000000000000000000000000000000000008152506040518060400160405280600481526020017f544e46540000000000000000000000000000000000000000000000000000000081525081600090805190602001906200061792919062000734565b5080600190805190602001906200063092919062000734565b5050506200066260405180606001604052806024815260200162004293602491396200066860201b62000f961760201c565b620009e6565b62000708816040516024016200067f9190620008fa565b6040516020818303038152906040527f41304fac000000000000000000000000000000000000000000000000000000007bffffffffffffffffffffffffffffffffffffffffffffffffffffffff19166020820180517bffffffffffffffffffffffffffffffffffffffffffffffffffffffff83818316178352505050506200070b60201b60201c565b50565b60008151905060006a636f6e736f6c652e6c6f679050602083016000808483855afa5050505050565b828054620007429062000970565b90600052602060002090601f016020900481019282620007665760008555620007b2565b82601f106200078157805160ff1916838001178555620007b2565b82800160010185558215620007b2579182015b82811115620007b157825182559160200191906001019062000794565b5b509050620007c191906200082c565b5090565b82805482825590600052602060002090810192821562000819579160200282015b82811115620008185782518290805190602001906200080792919062000734565b5091602001919060010190620007e6565b5b5090506200082891906200084b565b5090565b5b80821115620008475760008160009055506001016200082d565b5090565b5b808211156200086f576000818162000865919062000873565b506001016200084c565b5090565b508054620008819062000970565b6000825580601f10620008955750620008b6565b601f016020900490600052602060002090810190620008b591906200082c565b5b50565b6000620008c6826200091e565b620008d2818562000929565b9350620008e48185602086016200093a565b620008ef81620009d5565b840191505092915050565b60006020820190508181036000830152620009168184620008b9565b905092915050565b600081519050919050565b600082825260208201905092915050565b60005b838110156200095a5780820151818401526020810190506200093d565b838111156200096a576000848401525b50505050565b600060028204905060018216806200098957607f821691505b60208210811415620009a0576200099f620009a6565b5b50919050565b7f4e487b7100000000000000000000000000000000000000000000000000000000600052602260045260246000fd5b6000601f19601f8301169050919050565b6135e780620009f66000396000f3fe608060405234801561001057600080fd5b50600436106101005760003560e01c806370a0823111610097578063b187301f11610066578063b187301f146102bf578063b88d4fde146102ef578063c87b56dd1461030b578063e985e9c51461033b57610100565b806370a08231146102375780637e571cd81461026757806395d89b4114610285578063a22cb465146102a357610100565b806323b872dd116100d357806323b872dd1461019f5780632de38d68146101bb57806342842e0e146101eb5780636352211e1461020757610100565b806301ffc9a71461010557806306fdde0314610135578063081812fc14610153578063095ea7b314610183575b600080fd5b61011f600480360381019061011a9190612385565b61036b565b60405161012c91906129df565b60405180910390f35b61013d61044d565b60405161014a91906129fa565b60405180910390f35b61016d600480360381019061016891906123d7565b6104df565b60405161017a919061294f565b60405180910390f35b61019d60048036038101906101989190612349565b610525565b005b6101b960048036038101906101b49190612243565b61063d565b005b6101d560048036038101906101d091906123d7565b61069d565b6040516101e291906129fa565b60405180910390f35b61020560048036038101906102009190612243565b6107bb565b005b610221600480360381019061021c91906123d7565b6107db565b60405161022e919061294f565b60405180910390f35b610251600480360381019061024c91906121de565b61088d565b60405161025e9190612bda565b60405180910390f35b61026f610945565b60405161027c9190612bda565b60405180910390f35b61028d610bc7565b60405161029a91906129fa565b60405180910390f35b6102bd60048036038101906102b8919061230d565b610c59565b005b6102d960048036038101906102d491906123d7565b610c6f565b6040516102e691906129fa565b60405180910390f35b61030960048036038101906103049190612292565b610d8d565b005b610325600480360381019061032091906123d7565b610def565b60405161033291906129fa565b60405180910390f35b61035560048036038101906103509190612207565b610f02565b60405161036291906129df565b60405180910390f35b60007f80ac58cd000000000000000000000000000000000000000000000000000000007bffffffffffffffffffffffffffffffffffffffffffffffffffffffff1916827bffffffffffffffffffffffffffffffffffffffffffffffffffffffff1916148061043657507f5b5e139f000000000000000000000000000000000000000000000000000000007bffffffffffffffffffffffffffffffffffffffffffffffffffffffff1916827bffffffffffffffffffffffffffffffffffffffffffffffffffffffff1916145b8061044657506104458261102f565b5b9050919050565b60606000805461045c90612e6e565b80601f016020809104026020016040519081016040528092919081815260200182805461048890612e6e565b80156104d55780601f106104aa576101008083540402835291602001916104d5565b820191906000526020600020905b8154815290600101906020018083116104b857829003601f168201915b5050505050905090565b60006104ea82611099565b6004600083815260200190815260200160002060009054906101000a900473ffffffffffffffffffffffffffffffffffffffff169050919050565b6000610530826107db565b90508073ffffffffffffffffffffffffffffffffffffffff168373ffffffffffffffffffffffffffffffffffffffff1614156105a1576040517f08c379a000000000000000000000000000000000000000000000000000000000815260040161059890612b9a565b60405180910390fd5b8073ffffffffffffffffffffffffffffffffffffffff166105c06110e4565b73ffffffffffffffffffffffffffffffffffffffff1614806105ef57506105ee816105e96110e4565b610f02565b5b61062e576040517f08c379a000000000000000000000000000000000000000000000000000000000815260040161062590612b3a565b60405180910390fd5b61063883836110ec565b505050565b61064e6106486110e4565b826111a5565b61068d576040517f08c379a000000000000000000000000000000000000000000000000000000000815260040161068490612bba565b60405180910390fd5b61069883838361123a565b505050565b606060006106d16106ad846114a1565b6040516020016106bd91906128a4565b60405160208183030381529060405261164e565b9050600980549050816106e49190612f1a565b905060098181548110610720577f4e487b7100000000000000000000000000000000000000000000000000000000600052603260045260246000fd5b90600052602060002001805461073590612e6e565b80601f016020809104026020016040519081016040528092919081815260200182805461076190612e6e565b80156107ae5780601f10610783576101008083540402835291602001916107ae565b820191906000526020600020905b81548152906001019060200180831161079157829003601f168201915b5050505050915050919050565b6107d683838360405180602001604052806000815250610d8d565b505050565b6000806002600084815260200190815260200160002060009054906101000a900473ffffffffffffffffffffffffffffffffffffffff169050600073ffffffffffffffffffffffffffffffffffffffff168173ffffffffffffffffffffffffffffffffffffffff161415610884576040517f08c379a000000000000000000000000000000000000000000000000000000000815260040161087b90612b7a565b60405180910390fd5b80915050919050565b60008073ffffffffffffffffffffffffffffffffffffffff168273ffffffffffffffffffffffffffffffffffffffff1614156108fe576040517f08c379a00000000000000000000000000000000000000000000000000000000081526004016108f590612afa565b60405180910390fd5b600360008373ffffffffffffffffffffffffffffffffffffffff1673ffffffffffffffffffffffffffffffffffffffff168152602001908152602001600020549050919050565b6000806109526007611681565b9050600061095f8261069d565b9050600061096c83610c6f565b905060008282604051602001610983929190612822565b60405160208183030381529060405290506000600884846040516020016109ac93929190612846565b604051602081830303815290604052905060006109f1836109cc8461168f565b6040516020016109dd9291906128e8565b60405160208183030381529060405261168f565b9050600081604051602001610a06919061292d565b6040516020818303038152906040529050610a556040518060400160405280601581526020017f0a2d2d2d2d2d2d2d2d2d2d2d2d2d2d2d2d2d2d2d2d0000000000000000000000815250610f96565b610a5e81610f96565b610a9c6040518060400160405280601581526020017f2d2d2d2d2d2d2d2d2d2d2d2d2d2d2d2d2d2d2d2d0a0000000000000000000000815250610f96565b610aa6338861184d565b610ab0878261186b565b610ad360405180606001604052806027815260200161358b6027913988336118df565b610b116040518060400160405280601581526020017f0a2d2d2d2d2d2d2d2d2d2d2d2d2d2d2d2d2d2d2d2d0000000000000000000000815250610f96565b610b3981604051602001610b259190612882565b604051602081830303815290604052610f96565b610b776040518060400160405280601581526020017f2d2d2d2d2d2d2d2d2d2d2d2d2d2d2d2d2d2d2d2d0a0000000000000000000000815250610f96565b7febb98688741ffa4c7589bf325de30cf7becb63de567842e1ccdb6cb949fdc82c3388604051610ba89291906129b6565b60405180910390a1610bba600761197e565b8697505050505050505090565b606060018054610bd690612e6e565b80601f0160208091040260200160405190810160405280929190818152602001828054610c0290612e6e565b8015610c4f5780601f10610c2457610100808354040283529160200191610c4f565b820191906000526020600020905b815481529060010190602001808311610c3257829003601f168201915b5050505050905090565b610c6b610c646110e4565b8383611994565b5050565b60606000610ca3610c7f846114a1565b604051602001610c8f91906128c6565b60405160208183030381529060405261164e565b9050600a8054905081610cb69190612f1a565b9050600a8181548110610cf2577f4e487b7100000000000000000000000000000000000000000000000000000000600052603260045260246000fd5b906000526020600020018054610d0790612e6e565b80601f0160208091040260200160405190810160405280929190818152602001828054610d3390612e6e565b8015610d805780601f10610d5557610100808354040283529160200191610d80565b820191906000526020600020905b815481529060010190602001808311610d6357829003601f168201915b5050505050915050919050565b610d9e610d986110e4565b836111a5565b610ddd576040517f08c379a0000000000000000000000000000000000000000000000000000000008152600401610dd490612bba565b60405180910390fd5b610de984848484611b01565b50505050565b6060610dfa82611099565b6000600660008481526020019081526020016000208054610e1a90612e6e565b80601f0160208091040260200160405190810160405280929190818152602001828054610e4690612e6e565b8015610e935780601f10610e6857610100808354040283529160200191610e93565b820191906000526020600020905b815481529060010190602001808311610e7657829003601f168201915b505050505090506000610ea4611b5d565b9050600081511415610eba578192505050610efd565b600082511115610eef578082604051602001610ed7929190612822565b60405160208183030381529060405292505050610efd565b610ef884611b74565b925050505b919050565b6000600560008473ffffffffffffffffffffffffffffffffffffffff1673ffffffffffffffffffffffffffffffffffffffff16815260200190815260200160002060008373ffffffffffffffffffffffffffffffffffffffff1673ffffffffffffffffffffffffffffffffffffffff16815260200190815260200160002060009054906101000a900460ff16905092915050565b61102c81604051602401610faa91906129fa565b6040516020818303038152906040527f41304fac000000000000000000000000000000000000000000000000000000007bffffffffffffffffffffffffffffffffffffffffffffffffffffffff19166020820180517bffffffffffffffffffffffffffffffffffffffffffffffffffffffff8381831617835250505050611bdc565b50565b60007f01ffc9a7000000000000000000000000000000000000000000000000000000007bffffffffffffffffffffffffffffffffffffffffffffffffffffffff1916827bffffffffffffffffffffffffffffffffffffffffffffffffffffffff1916149050919050565b6110a281611c05565b6110e1576040517f08c379a00000000000000000000000000000000000000000000000000000000081526004016110d890612b7a565b60405180910390fd5b50565b600033905090565b816004600083815260200190815260200160002060006101000a81548173ffffffffffffffffffffffffffffffffffffffff021916908373ffffffffffffffffffffffffffffffffffffffff160217905550808273ffffffffffffffffffffffffffffffffffffffff1661115f836107db565b73ffffffffffffffffffffffffffffffffffffffff167f8c5be1e5ebec7d5bd14f71427d1e84f3dd0314c0f7b2291e5b200ac8c7c3b92560405160405180910390a45050565b6000806111b1836107db565b90508073ffffffffffffffffffffffffffffffffffffffff168473ffffffffffffffffffffffffffffffffffffffff1614806111f357506111f28185610f02565b5b8061123157508373ffffffffffffffffffffffffffffffffffffffff16611219846104df565b73ffffffffffffffffffffffffffffffffffffffff16145b91505092915050565b8273ffffffffffffffffffffffffffffffffffffffff1661125a826107db565b73ffffffffffffffffffffffffffffffffffffffff16146112b0576040517f08c379a00000000000000000000000000000000000000000000000000000000081526004016112a790612a7a565b60405180910390fd5b600073ffffffffffffffffffffffffffffffffffffffff168273ffffffffffffffffffffffffffffffffffffffff161415611320576040517f08c379a000000000000000000000000000000000000000000000000000000000815260040161131790612aba565b60405180910390fd5b61132b838383611c71565b6113366000826110ec565b6001600360008573ffffffffffffffffffffffffffffffffffffffff1673ffffffffffffffffffffffffffffffffffffffff16815260200190815260200160002060008282546113869190612d84565b925050819055506001600360008473ffffffffffffffffffffffffffffffffffffffff1673ffffffffffffffffffffffffffffffffffffffff16815260200190815260200160002060008282546113dd9190612ca3565b92505081905550816002600083815260200190815260200160002060006101000a81548173ffffffffffffffffffffffffffffffffffffffff021916908373ffffffffffffffffffffffffffffffffffffffff160217905550808273ffffffffffffffffffffffffffffffffffffffff168473ffffffffffffffffffffffffffffffffffffffff167fddf252ad1be2c89b69c2b068fc378daa952ba7f163c4a11628f55a4df523b3ef60405160405180910390a461149c838383611c76565b505050565b606060008214156114e9576040518060400160405280600181526020017f30000000000000000000000000000000000000000000000000000000000000008152509050611649565b600082905060005b6000821461151b57808061150490612ed1565b915050600a826115149190612cf9565b91506114f1565b60008167ffffffffffffffff81111561155d577f4e487b7100000000000000000000000000000000000000000000000000000000600052604160045260246000fd5b6040519080825280601f01601f19166020018201604052801561158f5781602001600182028036833780820191505090505b5090505b60008514611642576001826115a89190612d84565b9150600a856115b79190612f1a565b60306115c39190612ca3565b60f81b8183815181106115ff577f4e487b7100000000000000000000000000000000000000000000000000000000600052603260045260246000fd5b60200101907effffffffffffffffffffffffffffffffffffffffffffffffffffffffffffff1916908160001a905350600a8561163b9190612cf9565b9450611593565b8093505050505b919050565b600081604051602001611661919061280b565b6040516020818303038152906040528051906020012060001c9050919050565b600081600001549050919050565b606060008251905060008114156116b85760405180602001604052806000815250915050611848565b600060036002836116c99190612ca3565b6116d39190612cf9565b60046116df9190612d2a565b905060006020826116f09190612ca3565b67ffffffffffffffff81111561172f577f4e487b7100000000000000000000000000000000000000000000000000000000600052604160045260246000fd5b6040519080825280601f01601f1916602001820160405280156117615781602001600182028036833780820191505090505b509050600060405180606001604052806040815260200161354b604091399050600181016020830160005b868110156118055760038101905062ffffff818a015116603f8160121c168401518060081b905060ff603f83600c1c1686015116810190508060081b905060ff603f8360061c1686015116810190508060081b905060ff603f831686015116810190508060e01b9050808452600484019350505061178c565b50600386066001811461181f576002811461182f5761183a565b613d3d60f01b600283035261183a565b603d60f81b60018303525b508484525050819450505050505b919050565b611867828260405180602001604052806000815250611c7b565b5050565b61187482611c05565b6118b3576040517f08c379a00000000000000000000000000000000000000000000000000000000081526004016118aa90612b1a565b60405180910390fd5b806006600084815260200190815260200160002090805190602001906118da92919061206a565b505050565b6119798383836040516024016118f793929190612a1c565b6040516020818303038152906040527fe3849f79000000000000000000000000000000000000000000000000000000007bffffffffffffffffffffffffffffffffffffffffffffffffffffffff19166020820180517bffffffffffffffffffffffffffffffffffffffffffffffffffffffff8381831617835250505050611bdc565b505050565b6001816000016000828254019250508190555050565b8173ffffffffffffffffffffffffffffffffffffffff168373ffffffffffffffffffffffffffffffffffffffff161415611a03576040517f08c379a00000000000000000000000000000000000000000000000000000000081526004016119fa90612ada565b60405180910390fd5b80600560008573ffffffffffffffffffffffffffffffffffffffff1673ffffffffffffffffffffffffffffffffffffffff16815260200190815260200160002060008473ffffffffffffffffffffffffffffffffffffffff1673ffffffffffffffffffffffffffffffffffffffff16815260200190815260200160002060006101000a81548160ff0219169083151502179055508173ffffffffffffffffffffffffffffffffffffffff168373ffffffffffffffffffffffffffffffffffffffff167f17307eab39ab6107e8899845ad3d59bd9653f200f220920489ca2b5937696c3183604051611af491906129df565b60405180910390a3505050565b611b0c84848461123a565b611b1884848484611cd6565b611b57576040517f08c379a0000000000000000000000000000000000000000000000000000000008152600401611b4e90612a5a565b60405180910390fd5b50505050565b606060405180602001604052806000815250905090565b6060611b7f82611099565b6000611b89611b5d565b90506000815111611ba95760405180602001604052806000815250611bd4565b80611bb3846114a1565b604051602001611bc4929190612822565b6040516020818303038152906040525b915050919050565b60008151905060006a636f6e736f6c652e6c6f679050602083016000808483855afa5050505050565b60008073ffffffffffffffffffffffffffffffffffffffff166002600084815260200190815260200160002060009054906101000a900473ffffffffffffffffffffffffffffffffffffffff1673ffffffffffffffffffffffffffffffffffffffff1614159050919050565b505050565b505050565b611c858383611e6d565b611c926000848484611cd6565b611cd1576040517f08c379a0000000000000000000000000000000000000000000000000000000008152600401611cc890612a5a565b60405180910390fd5b505050565b6000611cf78473ffffffffffffffffffffffffffffffffffffffff16612047565b15611e60578373ffffffffffffffffffffffffffffffffffffffff1663150b7a02611d206110e4565b8786866040518563ffffffff1660e01b8152600401611d42949392919061296a565b602060405180830381600087803b158015611d5c57600080fd5b505af1925050508015611d8d57506040513d601f19601f82011682018060405250810190611d8a91906123ae565b60015b611e10573d8060008114611dbd576040519150601f19603f3d011682016040523d82523d6000602084013e611dc2565b606091505b50600081511415611e08576040517f08c379a0000000000000000000000000000000000000000000000000000000008152600401611dff90612a5a565b60405180910390fd5b805181602001fd5b63150b7a0260e01b7bffffffffffffffffffffffffffffffffffffffffffffffffffffffff1916817bffffffffffffffffffffffffffffffffffffffffffffffffffffffff191614915050611e65565b600190505b949350505050565b600073ffffffffffffffffffffffffffffffffffffffff168273ffffffffffffffffffffffffffffffffffffffff161415611edd576040517f08c379a0000000000000000000000000000000000000000000000000000000008152600401611ed490612b5a565b60405180910390fd5b611ee681611c05565b15611f26576040517f08c379a0000000000000000000000000000000000000000000000000000000008152600401611f1d90612a9a565b60405180910390fd5b611f3260008383611c71565b6001600360008473ffffffffffffffffffffffffffffffffffffffff1673ffffffffffffffffffffffffffffffffffffffff1681526020019081526020016000206000828254611f829190612ca3565b92505081905550816002600083815260200190815260200160002060006101000a81548173ffffffffffffffffffffffffffffffffffffffff021916908373ffffffffffffffffffffffffffffffffffffffff160217905550808273ffffffffffffffffffffffffffffffffffffffff16600073ffffffffffffffffffffffffffffffffffffffff167fddf252ad1be2c89b69c2b068fc378daa952ba7f163c4a11628f55a4df523b3ef60405160405180910390a461204360008383611c76565b5050565b6000808273ffffffffffffffffffffffffffffffffffffffff163b119050919050565b82805461207690612e6e565b90600052602060002090601f01602090048101928261209857600085556120df565b82601f106120b157805160ff19168380011785556120df565b828001600101855582156120df579182015b828111156120de5782518255916020019190600101906120c3565b5b5090506120ec91906120f0565b5090565b5b808211156121095760008160009055506001016120f1565b5090565b600061212061211b84612c1a565b612bf5565b90508281526020810184848401111561213857600080fd5b612143848285612e2c565b509392505050565b60008135905061215a816134ee565b92915050565b60008135905061216f81613505565b92915050565b6000813590506121848161351c565b92915050565b6000815190506121998161351c565b92915050565b600082601f8301126121b057600080fd5b81356121c084826020860161210d565b91505092915050565b6000813590506121d881613533565b92915050565b6000602082840312156121f057600080fd5b60006121fe8482850161214b565b91505092915050565b6000806040838503121561221a57600080fd5b60006122288582860161214b565b92505060206122398582860161214b565b9150509250929050565b60008060006060848603121561225857600080fd5b60006122668682870161214b565b93505060206122778682870161214b565b9250506040612288868287016121c9565b9150509250925092565b600080600080608085870312156122a857600080fd5b60006122b68782880161214b565b94505060206122c78782880161214b565b93505060406122d8878288016121c9565b925050606085013567ffffffffffffffff8111156122f557600080fd5b6123018782880161219f565b91505092959194509250565b6000806040838503121561232057600080fd5b600061232e8582860161214b565b925050602061233f85828601612160565b9150509250929050565b6000806040838503121561235c57600080fd5b600061236a8582860161214b565b925050602061237b858286016121c9565b9150509250929050565b60006020828403121561239757600080fd5b60006123a584828501612175565b91505092915050565b6000602082840312156123c057600080fd5b60006123ce8482850161218a565b91505092915050565b6000602082840312156123e957600080fd5b60006123f7848285016121c9565b91505092915050565b61240981612db8565b82525050565b61241881612dca565b82525050565b600061242982612c60565b6124338185612c76565b9350612443818560208601612e3b565b61244c81613007565b840191505092915050565b600061246282612c6b565b61246c8185612c87565b935061247c818560208601612e3b565b61248581613007565b840191505092915050565b600061249b82612c6b565b6124a58185612c98565b93506124b5818560208601612e3b565b80840191505092915050565b600081546124ce81612e6e565b6124d88186612c98565b945060018216600081146124f3576001811461250457612537565b60ff19831686528186019350612537565b61250d85612c4b565b60005b8381101561252f57815481890152600182019150602081019050612510565b838801955050505b50505092915050565b600061254d602583612c98565b915061255882613018565b602582019050919050565b6000612570603283612c87565b915061257b82613067565b604082019050919050565b6000612593602583612c87565b915061259e826130b6565b604082019050919050565b60006125b6601c83612c87565b91506125c182613105565b602082019050919050565b60006125d9602483612c87565b91506125e48261312e565b604082019050919050565b60006125fc601983612c87565b91506126078261317d565b602082019050919050565b600061261f600f83612c98565b915061262a826131a6565b600f82019050919050565b6000612642600d83612c98565b915061264d826131cf565b600d82019050919050565b6000612665602983612c87565b9150612670826131f8565b604082019050919050565b6000612688601083612c98565b915061269382613247565b601082019050919050565b60006126ab602e83612c87565b91506126b682613270565b604082019050919050565b60006126ce600283612c98565b91506126d9826132bf565b600282019050919050565b60006126f1603e83612c87565b91506126fc826132e8565b604082019050919050565b6000612714602083612c87565b915061271f82613337565b602082019050919050565b6000612737600a83612c98565b915061274282613360565b600a82019050919050565b600061275a601883612c87565b915061276582613389565b602082019050919050565b600061277d605e83612c98565b9150612788826133b2565b605e82019050919050565b60006127a0602183612c87565b91506127ab82613427565b604082019050919050565b60006127c3601d83612c98565b91506127ce82613476565b601d82019050919050565b60006127e6602e83612c87565b91506127f18261349f565b604082019050919050565b61280581612e22565b82525050565b60006128178284612490565b915081905092915050565b600061282e8285612490565b915061283a8284612490565b91508190509392505050565b600061285282866124c1565b915061285e8285612490565b915061286a8284612490565b915061287582612635565b9150819050949350505050565b600061288d82612540565b91506128998284612490565b915081905092915050565b60006128af82612612565b91506128bb8284612490565b915081905092915050565b60006128d18261267b565b91506128dd8284612490565b915081905092915050565b60006128f38261272a565b91506128ff8285612490565b915061290a82612770565b91506129168284612490565b9150612921826126c1565b91508190509392505050565b6000612938826127b6565b91506129448284612490565b915081905092915050565b60006020820190506129646000830184612400565b92915050565b600060808201905061297f6000830187612400565b61298c6020830186612400565b61299960408301856127fc565b81810360608301526129ab818461241e565b905095945050505050565b60006040820190506129cb6000830185612400565b6129d860208301846127fc565b9392505050565b60006020820190506129f4600083018461240f565b92915050565b60006020820190508181036000830152612a148184612457565b905092915050565b60006060820190508181036000830152612a368186612457565b9050612a4560208301856127fc565b612a526040830184612400565b949350505050565b60006020820190508181036000830152612a7381612563565b9050919050565b60006020820190508181036000830152612a9381612586565b9050919050565b60006020820190508181036000830152612ab3816125a9565b9050919050565b60006020820190508181036000830152612ad3816125cc565b9050919050565b60006020820190508181036000830152612af3816125ef565b9050919050565b60006020820190508181036000830152612b1381612658565b9050919050565b60006020820190508181036000830152612b338161269e565b9050919050565b60006020820190508181036000830152612b53816126e4565b9050919050565b60006020820190508181036000830152612b7381612707565b9050919050565b60006020820190508181036000830152612b938161274d565b9050919050565b60006020820190508181036000830152612bb381612793565b9050919050565b60006020820190508181036000830152612bd3816127d9565b9050919050565b6000602082019050612bef60008301846127fc565b92915050565b6000612bff612c10565b9050612c0b8282612ea0565b919050565b6000604051905090565b600067ffffffffffffffff821115612c3557612c34612fd8565b5b612c3e82613007565b9050602081019050919050565b60008190508160005260206000209050919050565b600081519050919050565b600081519050919050565b600082825260208201905092915050565b600082825260208201905092915050565b600081905092915050565b6000612cae82612e22565b9150612cb983612e22565b9250827fffffffffffffffffffffffffffffffffffffffffffffffffffffffffffffffff03821115612cee57612ced612f4b565b5b828201905092915050565b6000612d0482612e22565b9150612d0f83612e22565b925082612d1f57612d1e612f7a565b5b828204905092915050565b6000612d3582612e22565b9150612d4083612e22565b9250817fffffffffffffffffffffffffffffffffffffffffffffffffffffffffffffffff0483118215151615612d7957612d78612f4b565b5b828202905092915050565b6000612d8f82612e22565b9150612d9a83612e22565b925082821015612dad57612dac612f4b565b5b828203905092915050565b6000612dc382612e02565b9050919050565b60008115159050919050565b60007fffffffff0000000000000000000000000000000000000000000000000000000082169050919050565b600073ffffffffffffffffffffffffffffffffffffffff82169050919050565b6000819050919050565b82818337600083830152505050565b60005b83811015612e59578082015181840152602081019050612e3e565b83811115612e68576000848401525b50505050565b60006002820490506001821680612e8657607f821691505b60208210811415612e9a57612e99612fa9565b5b50919050565b612ea982613007565b810181811067ffffffffffffffff82111715612ec857612ec7612fd8565b5b80604052505050565b6000612edc82612e22565b91507fffffffffffffffffffffffffffffffffffffffffffffffffffffffffffffffff821415612f0f57612f0e612f4b565b5b600182019050919050565b6000612f2582612e22565b9150612f3083612e22565b925082612f4057612f3f612f7a565b5b828206905092915050565b7f4e487b7100000000000000000000000000000000000000000000000000000000600052601160045260246000fd5b7f4e487b7100000000000000000000000000000000000000000000000000000000600052601260045260246000fd5b7f4e487b7100000000000000000000000000000000000000000000000000000000600052602260045260246000fd5b7f4e487b7100000000000000000000000000000000000000000000000000000000600052604160045260246000fd5b6000601f19601f8301169050919050565b7f68747470733a2f2f6e6674707265766965772e30786465762e636f6465732f3f60008201527f636f64653d000000000000000000000000000000000000000000000000000000602082015250565b7f4552433732313a207472616e7366657220746f206e6f6e20455243373231526560008201527f63656976657220696d706c656d656e7465720000000000000000000000000000602082015250565b7f4552433732313a207472616e736665722066726f6d20696e636f72726563742060008201527f6f776e6572000000000000000000000000000000000000000000000000000000602082015250565b7f4552433732313a20746f6b656e20616c7265616479206d696e74656400000000600082015250565b7f4552433732313a207472616e7366657220746f20746865207a65726f2061646460008201527f7265737300000000000000000000000000000000000000000000000000000000602082015250565b7f4552433732313a20617070726f766520746f2063616c6c657200000000000000600082015250565b7f534547554e44415f50414c415652410000000000000000000000000000000000600082015250565b7f3c2f746578743e3c2f7376673e00000000000000000000000000000000000000600082015250565b7f4552433732313a2061646472657373207a65726f206973206e6f74206120766160008201527f6c6964206f776e65720000000000000000000000000000000000000000000000602082015250565b7f5052494d454952415f50414c4156524100000000000000000000000000000000600082015250565b7f45524337323155524953746f726167653a2055524920736574206f66206e6f6e60008201527f6578697374656e7420746f6b656e000000000000000000000000000000000000602082015250565b7f227d000000000000000000000000000000000000000000000000000000000000600082015250565b7f4552433732313a20617070726f76652063616c6c6572206973206e6f7420746f60008201527f6b656e206f776e6572206e6f7220617070726f76656420666f7220616c6c0000602082015250565b7f4552433732313a206d696e7420746f20746865207a65726f2061646472657373600082015250565b7f7b226e616d65223a202200000000000000000000000000000000000000000000600082015250565b7f4552433732313a20696e76616c696420746f6b656e2049440000000000000000600082015250565b7f222c20226465736372697074696f6e223a20224f6e6465207365752074696d6560008201527f207661692065737461206461717569203520616e6f733f222c2022696d61676560208201527f223a2022646174613a696d6167652f7376672b786d6c3b6261736536342c0000604082015250565b7f4552433732313a20617070726f76616c20746f2063757272656e74206f776e6560008201527f7200000000000000000000000000000000000000000000000000000000000000602082015250565b7f646174613a6170706c69636174696f6e2f6a736f6e3b6261736536342c000000600082015250565b7f4552433732313a2063616c6c6572206973206e6f7420746f6b656e206f776e6560008201527f72206e6f7220617070726f766564000000000000000000000000000000000000602082015250565b6134f781612db8565b811461350257600080fd5b50565b61350e81612dca565b811461351957600080fd5b50565b61352581612dd6565b811461353057600080fd5b50565b61353c81612e22565b811461354757600080fd5b5056fe4142434445464748494a4b4c4d4e4f505152535455565758595a6162636465666768696a6b6c6d6e6f707172737475767778797a303132333435363738392b2f556d61204e465420636f6d206f20494420257320666f69206d696e746164612070617261202573a26469706673582212204ae16bad2f0a5e520b5deb454083e397604c4ef1844f8d15b4a4f53f5d200a7264736f6c634300080100333c7376672020786d6c6e733d27687474703a2f2f7777772e77332e6f72672f323030302f7376672720207072657365727665417370656374526174696f3d27784d696e594d696e206d65657427202076696577426f783d273020302033353020333530273e20203c646566733e202020203c6c696e6561724772616469656e742069643d274772616469656e7431273e2020202020203c73746f7020636c6173733d2773746f703127206f66667365743d273025272f3e2020202020203c73746f7020636c6173733d2773746f703227206f66667365743d27353025272f3e2020202020203c73746f7020636c6173733d2773746f703327206f66667365743d2731303025272f3e202020203c2f6c696e6561724772616469656e743e20203c2f646566733e20203c7374796c653e202020202e62617365207b20202020202066696c6c3a20626c75653b202020202020666f6e742d66616d696c793a2073657269663b202020202020666f6e742d73697a653a20323070783b202020202020636f6c6f723a20234646463b202020207d202020202e73746f7031207b2073746f702d636f6c6f723a20677265656e3b207d202020202e73746f7032207b2073746f702d636f6c6f723a2077686974653b2073746f702d6f7061636974793a20303b207d202020202e73746f7033207b2073746f702d636f6c6f723a2079656c6c6f773b207d2020202020203c2f7374796c653e20203c726563742077696474683d273130302527206865696768743d2731303025272066696c6c3d2775726c28234772616469656e74312927202f3e20203c7465787420202020783d273530252720202020793d273530252720202020636c6173733d27626173652720202020646f6d696e616e742d626173656c696e653d276d6964646c652720202020746578742d616e63686f723d276d6964646c652720203e45737365206568206d657520636f6e747261746f206465204e46542120546368752d6875",
  "linkReferences": {},
  "deployedLinkReferences": {}
}